:100000000C94BA000C94D7000C94D7000C94D70031
:100010000C94D7000C94D7000C94D7000C94D70004
:100020000C94D7000C94D7000C94D7000C94D700F4
:100030000C94D7000C94D7000C94D7000C94D700E4
:100040000C94D7000C94D7000C94D7000C94D700D4
:100050000C94D7000C94D7000C94D7000C94D700C4
:100060000C94D7000C94D7000C94D7000C94D700B4
:100070000C94D7000C94D7000C94D7000C94D700A4
:100080000C94D7000C94D7000C94D7000C94D70094
:100090000C94D7000C94D7000C94D7000C94D70084
:1000A0000C94D7000C94D7000C94D7000C94D70074
:1000B0000C94D7000C94D7000C94D7000C94D70064
:1000C0000C94D7000C94D7000C94D700EA05F205E5
:1000D000F205F205F205F205F205F205F205F20568
:1000E000F205F205F205F205F205F205F205F20558
:1000F000F205F205F205F205F205F205F205F20548
:10010000F205F205F205A005B404EA04F205C00503
:10011000F205F205F205F205F205F205F205F20527
:10012000F205F205F205F205D905F2053505F205ED
:10013000F2056805F205F205F205F205F205F20591
:10014000F205F205F2058305B404C304F205C00507
:10015000F205F205F205F205F205F205F205F205E7
:10016000F205F205F205F205D905F2051D05F205C5
:10017000F205500511241FBECFEFD8E0DEBFCDBF82
:1001800012E0A0E0B1E0E4E0F2E102C005900D92DF
:10019000AE3FB107D9F723E0AEEFB2E001C01D9248
:1001A000A130B207E1F70E94EC010C9400090C9415
:1001B0000000CF93DF93CDB7DEB789EB90E0FC0171
:1001C0001082000088EB90E02CE0FC0120838CEB97
:1001D00090E024E0FC0120830000DF91CF9108959E
:1001E000CF93DF9300D01F92CDB7DEB78B838CEB1C
:1001F00090E024EAFC01208380E590E09A838983E3
:100200000FC089819A8101979A83898389819A8114
:10021000892B31F48091FE0281608093FE0232C00E
:100220008CEB90E0FC018081882324F089819A8105
:10023000892B39F78BEB90E02B81FC0120838CEB31
:1002400090E024E8FC01208380E590E09A83898394
:100250000FC089819A8101979A83898389819A81C4
:10026000892B31F48091FE0282608093FE020AC0E5
:100270008CEB90E0FC018081882324F089819A81B5
:10028000892B39F70F900F900F90DF91CF91089540
:10029000CF93DF93CDB7DEB78CEB90E024E9FC0180
:1002A00020830000DF91CF910895CF93DF9300D09A
:1002B0001F92CDB7DEB78B838BEB90E02B81FC01D7
:1002C00020838CEB90E024E8FC01208380E590E023
:1002D0009A8389830FC089819A8101979A83898340
:1002E00089819A81892B31F48091FE028460809308
:1002F000FE020AC08CEB90E0FC018081882324F090
:1003000089819A81892B39F70F900F900F90DF9197
:10031000CF910895CF93DF9300D0CDB7DEB78CEBAC
:1003200090E024E8FC01208380E590E09A838983B3
:1003300010C089819A8101979A83898389819A81E2
:10034000892B39F48091FE0280618093FE0280E067
:100350000EC08CEB90E0FC018081882324F0898121
:100360009A81892B31F78BEB90E0FC0180810F9013
:100370000F90DF91CF910895CF93DF93CDB7DEB784
:100380000E94D9000000DF91CF910895CF93DF93B1
:100390001F92CDB7DEB7898389810E94F0000000EB
:1003A0000F90DF91CF910895CF93DF931F92CDB738
:1003B000DEB7898389810E94550100000F90DF918B
:1003C000CF910895CF93DF93CDB7DEB70E94480158
:1003D0000000DF91CF910895CF93DF9300D0CDB788
:1003E000DEB70E9437020E94EF060E94330789831E
:1003F00081E00E9417078A8381E00E94530680E013
:1004000091E0892F8F9380E091E08F930E945104B7
:100410000F900F900E9469068A81882F90E0A0E0DB
:10042000B0E028E0AC01BD0182E00E94FA0284E065
:100430000E9453060E943307898384E00E9453067A
:1004400081E191E0892F8F9381E191E08F930E9468
:1004500051040F900F908981882F90E0A0E0B0E0C8
:1004600023E0AC01BD018AE00E94FA02E3CFCF9302
:10047000DF93CDB7DEB70E94D9008EEA0E94D9067D
:1004800085ED0E94D90680E80E94D90688EA0E947C
:10049000D9068FE30E94D90683ED0E94D90680E039
:1004A0000E94D90680E40E94D9068DE80E94D906F0
:1004B00084E10E94D90680E20E94D90680E00E9471
:1004C000D90681EA0E94D90688EC0E94D9068AEDF5
:1004D0000E94D90682E10E94D90681E80E94D906CD
:1004E0008FEC0E94D90689ED0E94D90681EF0E9407
:1004F000D9068BED0E94D90680E40E94D90684EAD1
:100500000E94D90686EA0E94D9068FEA0E94D9067F
:100510000E9408060000DF91CF910895CF93DF93EA
:1005200000D01F92CDB7DEB78B8319828091000374
:10053000882F90E00596803891051CF48B818A30D5
:1005400011F40E9469068B818A3071F18B8180528F
:100550008B838B81282F30E08981482F50E0C9019F
:10056000880F991F880F991F820F931F840F951F63
:100570008E5D9E4FFC0180818A838A810E94CB061A
:10058000809100038F5F8093000389818F5F89834F
:1005900089818530F1F680E00E94CB0680910003CE
:1005A0008F5F80930003000000000F900F900F906A
:1005B000DF91CF910895CF93DF9300D0CDB7DEB711
:1005C0009A8389830BC089819A819C012F5F3F4F59
:1005D0003A832983FC0180810E948E0289819A815D
:1005E000FC018081882379F700000F900F90DF9144
:1005F000CF910895FF920F931F93CF93DF93CDB7C1
:10060000DEB761970FB6F894DEBF0FBECDBF8C8703
:100610004D875E876F87788B298B19828C85823016
:1006200061F527C08989882F90E09C01215031090C
:1006300081E090E002C0880F991F2A95E2F79C01A3
:10064000990F440B550B8D859E85AF85B889822304
:100650009323A423B52321E0892B8A2B8B2B09F428
:1006600020E029838981805D0E948E0289898150E2
:10067000898B89898823B1F6A0C08D859E85AF8539
:10068000B889892B8A2B8B2B89F4198206C080E3C9
:100690000E948E0289818F5F898399818989981749
:1006A00008F08BC089818A3090F387C0198251C0CD
:1006B0008D859E85AF85B889892B8A2B8B2BA1F1DF
:1006C0008981082F10E0FD848C85282F30E040E0E0
:1006D00050E08D859E85AF85B889BC01CD010E9413
:1006E000D808DA01C901982F8C85989F802D112494
:1006F0002F2D281BCE010296800F911FFC01208315
:100700008C85282F30E040E050E08D859E85AF85B8
:10071000B889BC01CD010E94D808DA01C9018D87D2
:100720009E87AF87B88B12C089898F3F09F442C07A
:1007300089898B3008F03EC08981882F90E09E0126
:100740002E5F3F4F820F931FFC01108289818F5FC4
:10075000898399818989981708F4AACF2BC0898148
:10076000882F90E001979E012E5F3F4F820F931FCD
:10077000FC0180818A3068F08981882F90E00197A0
:100780009E012E5F3F4F820F931FFC018081895C89
:100790000CC08981882F90E001979E012E5F3F4F0A
:1007A000820F931FFC018081805D0E948E028981EF
:1007B000815089838981882391F6000061960FB664
:1007C000F894DEBF0FBECDBFDF91CF911F910F9187
:1007D000FF900895CF93DF93CDB7DEB728970FB67C
:1007E000F894DEBF0FBECDBF6D837E838F83988765
:1007F0006D817E818F8198850E94AE07DC01CB01DF
:1008000089839A83AB83BC8389819A81AB81BC81C4
:100810002FEFAC01BD018AE00E94FA028EE20E9435
:100820008E0269817A818B819C810E94DD07DC01C7
:10083000CB019C01AD016D817E818F8198850E94E5
:100840004107DC01CB018D839E83AF83B88720E015
:1008500034E244E759E46D817E818F8198850E945E
:100860006B08DC01CB01BC01CD010E94AE07DC01AD
:10087000CB0189839A83AB83BC8389819A81AB81C5
:10088000BC812FEFAC01BD018AE00E94FA0200009A
:1008900028960FB6F894DEBF0FBECDBFDF91CF9183
:1008A0000895CF93DF93CDB7DEB768970FB6F8946E
:1008B000DEBF0FBECDBFCE014F96988F8F8B8D8D33
:1008C0009E8D9A83898393C189819A81FC0180815D
:1008D00089878985853209F082C189819A8101964B
:1008E0009A83898389819A81FC018081898789859E
:1008F000803300F189858A33E8F41A8614C08A852A
:10090000880F982F990F990F980F8985890F805319
:100910008A8789819A8101969A83898389819A81BC
:10092000FC01808189878985803338F089858A3305
:1009300030F303C08FEF8A8701C000008985882FBC
:1009400090E0092E000CAA0BBB0B45E250E023E51A
:1009500030E0841B950B2817390708F443C18A59E6
:100960009F4FFC010C94FA088F89988D9C012E5F93
:100970003F4F388F2F8BFC0180819181898789853A
:100980000E948E022FC18F89988D9C012E5F3F4F50
:10099000388F2F8BFC01808191819C838B838B818D
:1009A0009C81992354F48B819C8191958195910927
:1009B0009C838B838DE20E948E028B819C81092E09
:1009C000000CAA0BBB0B2A85AC01BD018AE00E947A
:1009D000FA0208C18F89988D9C012C5F3F4F388F98
:1009E0002F8BFC0180819181A281B3818D839E83B5
:1009F000AF83B8878D819E81AF81B885BB2394F486
:100A00008D819E81AF81B885B095A0959095819597
:100A10009F4FAF4FBF4F8D839E83AF83B8878DE2CB
:100A20000E948E028D819E81AF81B8852A85AC019E
:100A3000BD018AE00E94FA02D5C08F89988D9C0181
:100A40002E5F3F4F388F2F8BFC01808191819C87D7
:100A50008B878B859C85CC01A0E0B0E02A85AC011A
:100A6000BD018AE00E94FA02BDC08F89988D9C0169
:100A70002C5F3F4F388F2F8BFC0180819181A281A9
:100A8000B3818D879E87AF87B88B8D859E85AF8517
:100A9000B8892A85AC01BD018AE00E94FA02A2C091
:100AA0008F89988D9C012E5F3F4F388F2F8BFC01D3
:100AB000808191819C878B878B859C85CC01A0E070
:100AC000B0E02A85AC01BD0180E10E94FA028AC033
:100AD0008F89988D9C012C5F3F4F388F2F8BFC01A5
:100AE00080819181A281B3818D879E87AF87B88BEA
:100AF0008D859E85AF85B8892A85AC01BD0180E1D1
:100B00000E94FA026FC08F89988D9C012E5F3F4F23
:100B1000388F2F8BFC01808191819C878B878A8500
:100B20008F3F11F480E18A878B859C85CC01A0E002
:100B3000B0E02A85AC01BD0182E00E94FA0252C0F9
:100B40008F89988D9C012C5F3F4F388F2F8BFC0134
:100B500080819181A281B3818D879E87AF87B88B79
:100B60008A858F3F11F480E18A878D859E85AF85C8
:100B7000B8892A85AC01BD0182E00E94FA0232C028
:100B80008F89988D9C012C5F3F4F388F2F8BFC01F4
:100B900080819181A281B381898B9A8BAB8BBC8B35
:100BA00089899A89AB89BC89BC01CD010E94EA037D
:100BB00019C08F89988D9C012E5F3F4F388F2F8BE6
:100BC000FC01808191819E8B8D8B8D899E890E94F5
:100BD000DB0208C085E20E948E02000003C0898506
:100BE0000E948E0289819A8101969A8389838981E4
:100BF0009A81FC018081882309F066CE0000689606
:100C00000FB6F894DEBF0FBECDBFDF91CF91089530
:100C1000CF93DF9300D0CDB7DEB781E20E94D90633
:100C200080E00E94D9068FE70E94D90682E20E94E6
:100C3000D90680E00E94D90687E00E94D90688E79D
:100C40000E94B10680E40E94CB061A82198208C075
:100C500080E00E94CB0689819A8101969A838983DC
:100C600089819A81811594409CF381E20E94D90682
:100C700080E00E94D9068FE70E94D90682E20E9496
:100C8000D90680E00E94D90687E00E94D90688E74D
:100C90000E94B10680E40E94CB0600000F900F90E6
:100CA000DF91CF910895CF93DF931F92CDB7DEB739
:100CB00089838981883040F489818093FF02809103
:100CC000FF0260E00E94800600000F90DF91CF914C
:100CD0000895CF93DF93CDB7DEB78091FF028F5F8A
:100CE0008093FF028091FF0287708093FF028091C2
:100CF000FF0260E00E9480060000DF91CF9108951E
:100D0000CF93DF9300D0CDB7DEB789836A83898123
:100D1000883008F58A818823F4F089818093FF0266
:100D20008A818093000381E20E94D9068A810E9411
:100D3000D9068FE70E94D90682E20E94D9068981EE
:100D40000E94D90687E00E94D90688E70E94B10672
:100D500080E40E94CB0600000F900F90DF91CF91AE
:100D60000895CF93DF931F92CDB7DEB789830E949A
:100D7000BC0189810E94C60100000F90DF91CF91D4
:100D80000895CF93DF93CDB7DEB70E94E201000054
:100D9000DF91CF910895CF93DF931F92CDB7DEB748
:100DA000898389810E94D40100000F90DF91CF9147
:100DB0000895CF93DF931F92CDB7DEB7898388E77D
:100DC0000E94B10680E00E94CB0689810E94CB067A
:100DD0000E94C10600000F90DF91CF910895CF933C
:100DE000DF931F92CDB7DEB786E28983698181E008
:100DF0000E94FF0600000F90DF91CF910895CF93DE
:100E0000DF9300D0CDB7DEB789836A8380E90E9483
:100E1000F00089810E9455018A810E9455010E943B
:100E2000480100000F900F90DF91CF910895CF936C
:100E3000DF9300D0CDB7DEB78A8380E90E94F0004F
:100E40008A810E9455010E94480181E90E94F000B8
:100E50000E948A0189830E94480189810F900F9026
:100E6000DF91CF910895CF93DF931F92CDB7DEB777
:100E700080E00E941707898389810F90DF91CF91CD
:100E800008955058BB27AA270E9459070C9431088F
:100E90000E94230838F00E942A0820F039F49F3F6E
:100EA00019F426F40C9420080EF4E095E7FB0C945A
:100EB0001A08E92F0E94420858F3BA17620773070D
:100EC0008407950720F079F4A6F50C9464080EF4D5
:100ED000E0950B2EBA2FA02D0B01B90190010C014A
:100EE000CA01A0011124FF27591B99F0593F50F462
:100EF000503E68F11A16F040A22F232F342F4427BA
:100F0000585FF3CF469537952795A795F0405395B1
:100F1000C9F77EF41F16BA0B620B730B840BBAF081
:100F20009150A1F0FF0FBB1F661F771F881FC2F7EC
:100F30000EC0BA0F621F731F841F48F48795779500
:100F40006795B795F7959E3F08F0B0CF9395880FBA
:100F500008F09927EE0F9795879508950E944A0803
:100F600088F09F5798F0B92F9927B751B0F0E1F06A
:100F7000660F771F881F991F1AF0BA95C9F714C01A
:100F8000B13091F00E946408B1E008950C946408B7
:100F9000672F782F8827B85F39F0B93FCCF3869553
:100FA00077956795B395D9F73EF4909580957095B0
:100FB00061957F4F8F4F9F4F0895E89409C097FB2D
:100FC0003EF490958095709561957F4F8F4F9F4F20
:100FD0009923A9F0F92F96E9BB279395F695879564
:100FE00077956795B795F111F8CFFAF4BB0F11F427
:100FF00060FF1BC06F5F7F4F8F4F9F4F16C08823CE
:1010000011F096E911C0772321F09EE8872F762F03
:1010100005C0662371F096E8862F70E060E02AF044
:101020009A95660F771F881FDAF7880F9695879530
:1010300097F9089597F99F6780E870E060E0089558
:101040009FEF80EC089500240A94161617061806E0
:101050000906089500240A941216130614060506BC
:101060000895092E0394000C11F4882352F0BB0F4D
:1010700040F4BF2B11F460FF04C06F5F7F4F8F4FB0
:101080009F4F089557FD9058440F551F59F05F3FEB
:1010900071F04795880F97FB991F61F09F3F79F09A
:1010A00087950895121613061406551FF2CF46951C
:1010B000F1DF08C0161617061806991FF1CF86959E
:1010C0007105610508940895E894BB276627772782
:1010D000CB0197F908950E947E080C9431080E9474
:1010E000230838F00E942A0820F0952311F00C9470
:1010F0001A080C94200811240C9465080E944208D8
:1011000070F3959FC1F3950F50E0551F629FF0015A
:10111000729FBB27F00DB11D639FAA27F00DB11D73
:10112000AA1F649F6627B00DA11D661F829F2227FC
:10113000B00DA11D621F739FB00DA11D621F839F83
:10114000A00D611D221F749F3327A00D611D231F59
:10115000849F600D211D822F762F6A2F11249F57A7
:1011600050409AF0F1F088234AF0EE0FFF1FBB1FAA
:10117000661F771F881F91505040A9F79E3F510569
:1011800080F00C941A080C9465085F3FE4F3983ED5
:10119000D4F3869577956795B795F795E7959F5F13
:1011A000C1F7FE2B880F911D9695879597F90895A5
:1011B000A1E21A2EAA1BBB1BFD010DC0AA1FBB1F5B
:1011C000EE1FFF1FA217B307E407F50720F0A21BCD
:1011D000B30BE40BF50B661F771F881F991F1A943A
:1011E00069F760957095809590959B01AC01BD0164
:1011F000CF010895EE0FFF1F0590F491E02D0994A3
:04120000F894FFCF90
:10120400436F6E66696720526567697374657220FF
:101214000054656D7020696E2043656C7369757345
:101224002000000000000000002F0000000700075D
:1012340000147F147F14242A7F2A12231308646263
:1012440036495522500005030000001C22410000CD
:1012540041221C0014083E081408083E0808000037
:10126400A06000080808080800606000002010085A
:1012740004023E5149453E00427F400042615149CB
:10128400462141454B311814127F102745454539F5
:101294003C4A494930017109050336494949360632
:1012A4004949291E0036360000005636000008144D
:1012B4002241001414141414004122140802015190
:1012C4000906324959513E7C1211127C7F49494921
:1012D400363E414141227F4141221C7F49494941D7
:1012E4007F090909013E4149497A7F0808087F00BE
:1012F400417F41002040413F017F081422417F404B
:101304004040407F020C027F7F0408107F3E414131
:10131400413E7F090909063E4151215E7F09192991
:1013240046464949493101017F01013F4040403F60
:101334001F2040201F3F4038403F631408146307B8
:10134400087008076151494543007F41410055AA8F
:1013540055AA550041417F00040201020440404067
:101364004040000305000020545454787F4844440E
:10137400383844444420384444487F38545454183A
:10138400087E09010218A4A4A47C7F080404780040
:10139400447D40004080847D007F1028440000414B
:1013A4007F40007C041804787C08040478384444A2
:1013B4004438FC2424241818242418FC7C0804042D
:1013C400084854545420043F4440203C4040207C6E
:1013D4001C2040201C3C4030403C44281028441C25
:1013E400A0A0A07C4464544C4400107C8200000003
:0E13F400FF000000827C1000000609090600C0
:00000001FF
